:100000000C9400010C9428010C9428010C942801F4
:100010000C9428010C9428010C9428010C942801BC
:100020000C9428010C9428010C94F6030C94680499
:100030000C9428010C9428010C9428010C9428019C
:100040000C9428010C9428010C9428010C9428018C
:100050000C9428010C9428010C9428010C943C0A5F
:100060000C9428010C9428010C9428010C9428016C
:100070000C9428010C9428010C9428010C9428015C
:100080000C94D6060C9428010C9428010C94280199
:100090000C9428010C9428010C94A6060C942801B9
:1000A0000C9428010C9428010C9428015B0C5D0C25
:1000B0005F0C650C670C6D0C6F0C0E0811080008C6
:1000C00004080A08320832083208150819081D0801
:1000D0002308270832082D08A009A509AA09B40990
:1000E000BE09080A080A080AC809D209DC09E60993
:1000F000F309080AFB09080B0002020201000904C7
:100100000000010202000005240010010524010185
:1001100001042402060524060001070581031000DE
:100120004009040100020A00000007050202400025
:1001300000070583024000000403090412010002C5
:10014000EF020140412336800001010203014172A8
:100150006475696E6F204C4C430041726475696E22
:100160006F204C656F6E6172646F000706050401B5
:1001700000080A0B0C0D0900000000240027002ACB
:10018000002D00300000000000250028002B002E6C
:10019000003100000000002300260029002C002F61
:1001A000000404040404030405020202020403021E
:1001B00002020206060606060604040202020404FF
:1001C0000408020110408040102040804080080256
:1001D00004018040201002011080102040402000C7
:1001E00000000200090F0000030401000C000000E1
:1001F0000000000000000000000000000000B20C41
:1002000011241FBECFEFDAE0DEBFCDBF11E0A0E0CA
:10021000B1E0E4EDFDE102C005900D92A63DB1070D
:10022000D9F722E0A6EDB1E001C01D92A93AB207CC
:10023000E1F710E0C0E0D1E004C02197FE010E9488
:10024000C90ECF3FD107C9F70E94860A0C94E80E69
:100250000C9400004091D8015091D9012091D60111
:100260003091D70142175307B4F49091E80095708C
:10027000E1F39091E80092FD19C08093F100809124
:10028000D8019091D90101968F739927892B19F480
:100290008EEF8093E8008091D8019091D90101966A
:1002A0009093D9018093D80181E0089580E008956A
:1002B000DF92EF92FF920F931F93CF93DF93D82E8D
:1002C000F92EE42E062F10E0C8010196880F0E9437
:1002D0002A0183E00E942A01CD2DDF2D0C0F1D1F66
:1002E000C017D10789F0E7FE03C0FE01849101C069
:1002F00088810E942A01F82E80E00E942A018F2125
:1003000021968111EDCF01C081E0DF91CF911F9146
:100310000F91FF90EF90DF900895DF92EF92FF92A0
:100320000F931F93CF93DF93D82E8A017B01E40EA6
:10033000F51EEB01CE15DF0571F0D7FE03C0FE01FF
:10034000849101C088810E942A0121968111F2CFF7
:100350008FEF9FEF01C0C801DF91CF911F910F91E7
:10036000FF90EF90DF900895615030F02091F10000
:10037000FC0120830196F8CF289884E680934202FE
:100380000895CF92DF92EF92FF920F931F93CF9336
:10039000DF936C017A018B01C0E0D0E0CE15DF0560
:1003A00081F0D8016D918D01D601ED91FC91019004
:1003B000F081E02DC6010995892B11F02196EECF31
:1003C0007E01C701DF91CF911F910F91FF90EF90B8
:1003D000DF90CF900895CF93DF931F92CDB7DEB714
:1003E0006983DC01ED91FC910280F381E02D41E015
:1003F00050E0BE016F5F7F4F09950F90DF91CF9165
:10040000089583E08093E9008091F200882319F039
:100410008AE38093E8000895FC018485958597FD23
:100420000BC09FB7F89482E08093E9008091F200BE
:100430009FBF90E0019608959FB7F89482E0809363
:10044000E9008091F2009FBF90E00895089580E058
:1004500090E0089561E083E00E940E0961E082E08F
:100460000E940E0961E080E00E940E0960E070E0E9
:1004700089E00E94790960E070E08AE00C947909D3
:100480000E94E30E0F931F93CF93DF931F92CDB77C
:10049000DEB782E0898342E450E066EF70E080E8F6
:1004A0000E948D010E94D108DC0112960D911C91D1
:1004B00013970115110589F0D801ED91FC91028087
:1004C000F381E02DBE016F5F7F4FC801099597FD55
:1004D00004C0F80100851185ECCF89810F90DF9170
:1004E000CF911F910F9108958F929F92AF92BF92DB
:1004F000CF92DF92EF92FF920F931F93CF93DF93F0
:100500006C017B018A0180910B01882309F458C09A
:1005100080914302882309F453C08091DC0180FF5D
:1005200005C08091E00082608093E000E801B12C7A
:100530008AEFA82E93E0892E2AE3922E209711F4B9
:10054000BB20B9F10E94A608811106C0AA94AA2076
:10055000B9F10E94B708F2CF282F30E0C217D307B5
:100560000CF48C2F9FB7F8948092E9002091E8005A
:1005700025FF1DC0282F30E0C21BD30BF70181508F
:1005800020F041914093F100FACFE20EF31EBB2020
:1005900019F09092E8000AC08091E80085FD07C03C
:1005A0009092E800BB24B394209709F0B12C9FBF30
:1005B000C5CF5D9884E68093DB011016110644F0E8
:1005C00081E090E0F6019383828380E090E001C0B7
:1005D000C801DF91CF911F910F91FF90EF90DF90B5
:1005E000CF90BF90AF909F908F9008950E94A608E3
:1005F00090E008950F931F93CF93DF931F92CDB791
:10060000DEB78C01FC018485958597FF0EC0CE0175
:1006100001960E947808019719F4898190E002C040
:100620008FEF9FEFF80195878487F8018485958582
:100630000F90DF91CF911F910F910895CF93DF938A
:100640001F92CDB7DEB7FC018485958597FD05C067
:100650002FEF3FEF358724870BC0CE0101960E9414
:100660007808019719F4898190E002C08FEF9FEF1D
:100670000F90DF91CF91089585ED91E00E946A0877
:100680008FE391E00E946A088DE691E00E946A087B
:1006900080EA91E00E946A0885ED91E00C946A0876
:1006A0004F925F926F927F92AF92BF92CF92DF9202
:1006B000EF92FF920F931F93CF93DF93CDB7DEB7E7
:1006C000A1970FB6F894DEBF0FBECDBF8C015C01C1
:1006D00080E1A80EB11C9AE0492E512C612C712C9E
:1006E000F801C190D1908F010D2C000CEE08FF088D
:1006F000F7FE20C06DE284E492E00E94EB01222725
:100700003327A9012C193D094E095F0919A2CE0111
:1007100081967C01CA01B901A30192010E94A70E32
:10072000605DF70162937F01211531054105510597
:1007300089F715C0A701960119A2CE0181967C0107
:10074000CA01B901A30192010E94A70E605DF701E1
:1007500062937F01211531054105510589F7C701D4
:100760000E9458088BEC91E00E945808A016B10630
:1007700009F0B6CF8DE2E82E81E0F82E00E010E01F
:10078000F7018081F2E0EF0EF11C0E94E508892B51
:1007900019F08DEC91E002C08FEC91E00E945808B6
:1007A0000230110529F08BEC91E00E94580804C03A
:1007B00081ED91E00E946A080F5F1F4F0330110521
:1007C000F9F6A1960FB6F894DEBF0FBECDBFDF914C
:1007D000CF911F910F91FF90EF90DF90CF90BF903E
:1007E000AF907F906F905F904F9008951F920F92FF
:1007F0000FB60F9211248F939F938091E1009091F7
:10080000E100937F9093E10083FF0FC01092E90015
:1008100091E09093EB001092EC0092E39093ED0046
:100820001092430298E09093F00082FF20C093E082
:100830009093E9009091F200992319F09AE3909334
:10084000E8009091DB01992339F09091DB01915000
:100850009093DB01992389F190914202992339F019
:1008600090914202915090934202992341F184FF6A
:1008700010C08091E2008E7E81608093E2008091C2
:10088000E1008F7E8093E1008091DC018E7E8061AB
:1008900011C080FF16C08091E2008E7E806180933F
:1008A000E2008091E1008E7E8093E1008091DC0186
:1008B0008E7E81608093DC0104C05D9ACDCF289A42
:1008C000D6CF9F918F910F900FBE0F901F901895CC
:1008D0001F920F920FB60F921124CF92DF92EF92D8
:1008E000FF920F931F932F933F934F935F936F93B9
:1008F0007F938F939F93AF93BF93EF93FF93CF9388
:10090000DF93CDB7DEB76C97DEBFCDBF1092E900A5
:100910008091E80083FFFBC168E0CE0145960E940C
:10092000B40182EF8093E8008D8987FF05C0909124
:10093000E80090FFFCCF03C09EEF9093E800982F53
:10094000907609F0C6C09E894F89588D2F89F88C02
:1009500091110CC0803829F48091DD018093F10061
:1009600002C01092F1001092F10045C1913051F493
:10097000811141C14130510509F03DC18091DD0136
:100980008D7F0BC0933061F4811135C14130510529
:1009900009F031C18091DD0182608093DD012BC1BE
:1009A000953049F48091E80080FFFCCF822F806869
:1009B0008093E30020C1963009F05EC00B8D1C8D42
:1009C00022E01092E9001092D9011092D801F2129F
:1009D00032C01092D7011092D6010E94420299E0D3
:1009E000BE016F5F7F4FDB01E92F1D92EA95E9F7AA
:1009F0009983FA8291E09E8390EA98879AEF99878B
:100A00002091D8013091D901275F3F4F3C832B8340
:100A10008D831092E9001092D9011092D8011093A1
:100A2000D7010093D60149E050E080E00E948D019B
:100A30000E944202E0C01093D7010093D6010E94A9
:100A4000D108DC0112960D911C9113970115110527
:100A500009F4BBC0D801ED91FC910480F581E02D33
:100A6000BE016B5E7F4FC8010995009709F0C7C0B2
:100A7000F80100851185EACF973009F445C1983017
:100A800021F481E08093F100B6C0993009F0B3C041
:100A9000837009F039C1EFE1F1E081E031E096E3E4
:100AA0002081211109C08EE78093EA001092EA00AC
:100AB0008F89809343029FC08093E9003093EB00BD
:100AC00021912093EC009093ED008F5F873041F7E8
:100AD000EACF8B8D9C8D1092E9001092D901109273
:100AE000D8019093D7018093D601898D811153C08D
:100AF0008E899D89913A49F4813209F005C147E018
:100B000050E064E071E080E0BBC0913209F0FCC0CD
:100B1000833269F48F89988DA0E0B0E08093000162
:100B200090930101A0930201B093030164C080324D
:100B300069F48091E80082FFFCCF67E084E091E0F7
:100B40000E94B4018BEF8093E80055C0823209F017
:100B500052C08F8980930B01EEEFFFE7859194914E
:100B60008B3F9C4D19F0E0E0F8E002C0EEEFFAE0B8
:100B70008091040190910501A0910601B0910701B7
:100B8000803B9440A105B10509F09EC080910B0106
:100B900080FF79C099C00E94D108FC0102811381B5
:100BA0000115110509F4B0C0D801ED91FC91019037
:100BB000F081E02DBE016B5E7F4FC8010995811168
:100BC0001AC0F80100851185EBCFF1E0FF1609F49A
:100BD0004EC0F3E0FF1298C08F89882309F44AC001
:100BE000823089F440E860E18AE591E00E94580192
:100BF000882309F489C08EEF8093E80088C0181616
:100C00001906CCF381C0813029F440E86BE08EE412
:100C100091E0ECCF833009F077C00E94D108DC016D
:100C20001296ED90FC9013978E010F5F1F4F680195
:100C3000E114F10479F0D701ED91FC910680F78180
:100C4000E02DB801C7010995080F111DF701E084D7
:100C5000F184EECFD8011C92F60101900020E9F753
:100C60003197BF016C197D0940E0C601BFCF6CE32D
:100C700071E002C068E371E0FB01449150E080E85C
:100C80000E948D01B8CFEE3F2AE0F20751F080813B
:100C900091818737A7E79A0721F09093FF0A809305
:100CA000FE0A87E797E791838083809160008093B5
:100CB000DA019BE088E10FB6F894A8958093600074
:100CC0000FBE9093600097CF8081918187379747BF
:100CD00009F091CFA89580916000886180936000B1
:100CE0008091DA0180936000EE3FBAE0FB0739F0B3
:100CF0008091FE0A9091FF0A918380837CCF1092AD
:100D0000FF0A1092FE0A77CF81E28093EB006C9687
:100D10000FB6F894DEBF0FBECDBFDF91CF91FF912C
:100D2000EF91BF91AF919F918F917F916F915F9163
:100D30004F913F912F911F910F91FF90EF90DF9076
:100D4000CF900F900FBE0F901F9018951F920F928B
:100D50000FB60F9211242F933F934F935F936F938E
:100D60007F938F939F93AF93BF93EF93FF93809164
:100D70003E02882331F08FE00E94E50861E0682799
:100D800001C060E08FE00E940E09FF91EF91BF91DA
:100D9000AF919F918F917F916F915F914F913F9113
:100DA0002F910F900FBE0F901F9018951F920F92CA
:100DB0000FB60F9211242F933F934F935F936F932E
:100DC0007F938F939F93AF93BF93CF93DF93EF93D3
:100DD000FF9380913F02882309F4F5C0C09140023F
:100DE000D0914102C536D1050CF0EDC082E10E94E0
:100DF000110ABC01990F880B990B0E94DE0D9B0113
:100E0000AC0160911E0270911F02809120029091AE
:100E100021020E94C80C60931E0270931F028093EF
:100E200020029093210283E10E94110ABC01990FD4
:100E3000880B990B0E94DE0D9B01AC016091220290
:100E40007091230280912402909125020E94C80C87
:100E500060932202709323028093240290932502D0
:100E600084E10E94110ABC01990F880B990B0E9422
:100E7000DE0D9B01AC0160912602709127028091EA
:100E80002802909129020E94C80C60932602709358
:100E90002702809328029093290285E10E94110A7B
:100EA000BC01990F880B990B0E94DE0D9B01AC01D0
:100EB00060912A0270912B0280912C0290912D0258
:100EC0000E94C80C60932A0270932B0280932C021C
:100ED00090932D0286E10E94110ABC01990F880BA4
:100EE000990B0E94DE0D9B01AC0160912E02709166
:100EF0002F0280913002909131020E94C80C6093C1
:100F00002E0270932F02809330029093310287E17A
:100F10000E94110ABC01990F880B990B0E94DE0DEB
:100F20009B01AC01609132027091330280913402D6
:100F3000909135020E94C80C609332027093330284
:100F4000809334029093350289E10E94110ABC011A
:100F5000990F880B990B0E94DE0D9B01AC016091EB
:100F600036027091370280913802909139020E94C6
:100F7000C80C6093360270933702809338029093C6
:100F800039028AE10E94110ABC01990F880B990B62
:100F90000E94DE0D9B01AC0160913A0270913B0210
:100FA00080913C0290913D020E94C80C60933A02ED
:100FB00070933B0280933C0290933D022196D09324
:100FC0004102C0934002FF91EF91DF91CF91BF9119
:100FD000AF919F918F917F916F915F914F913F91D1
:100FE0002F910F900FBE0F901F90189590E0FC016D
:100FF0003197EF30F105B0F5E35AFF4F0C94C90E6D
:10100000809180008F7703C0809180008F7D8093D6
:101010008000089580918000877FF9CF84B58F7715
:1010200002C084B58F7D84BD0895809190008F7734
:1010300007C0809190008F7D03C080919000877FD2
:101040008093900008958091C0008F7703C08091B5
:10105000C0008F7D8093C00008958091C200877F7B
:101060008093C20008953FB7F894809199029091BF
:101070009A02A0919B02B0919C0226B5A89B05C044
:101080002F3F19F00196A11DB11D3FBFBA2FA92F07
:10109000982F8827820F911DA11DB11DBC01CD0184
:1010A00042E0660F771F881F991F4A95D1F7089570
:1010B000009769F0FC0101900020E9F73197AF013A
:1010C000481B590BBC0184E492E00C94740280E04C
:1010D00090E00895CF93DF930E945808EC0183EDD0
:1010E00091E00E9458088C0F9D1FDF91CF910895C9
:1010F00020914302211103C08FEF9FEF08955FB746
:10110000F89422E02093E9002091F20030E01216DA
:10111000130614F421E030E0422FFC0184E6415034
:1011200038F02898809342029091F1009193F7CF84
:101130002115310521F08091F200882319F05FBF5D
:10114000C90108958BE68093E800F9CF2FB7F89492
:1011500083E08093E9009091E800892F807295FFE9
:1011600004C09091F20080E4891B2FBF0895CF92B4
:10117000DF92EF92FF920E9433086B017C010E9484
:101180003308DC01CB018C199D09AE09BF09883EEB
:101190009340A105B10598F3FF90EF90DF90CF90B9
:1011A00008958091A10281110DC082E080939D027B
:1011B00084E080939E021092A00210929F0281E030
:1011C0008093A1028DE992E00895CF93DF93282FB9
:1011D00030E0F901E152FE4F8491F901E054FE4FF5
:1011E000D491F901EF55FE4FC491CC2391F08111B8
:1011F0000E94F607EC2FF0E0EE0FFF1FED56FE4FBA
:10120000A591B491EC91ED2381E090E021F480E090
:1012100002C080E090E0DF91CF9108951F93CF93BB
:10122000DF93282F30E0F901E152FE4F8491F9015C
:10123000E054FE4FD491F901EF55FE4FC491CC23F9
:10124000C1F0162F81110E94F607EC2FF0E0EE0F8F
:10125000FF1FEB57FE4FA591B4919FB7F894111162
:1012600004C08C91D095D82302C0EC91DE2BDC9386
:101270009FBFDF91CF911F910895CF93DF9390E0AF
:10128000FC01E054FE4F2491FC01EF55FE4F849188
:10129000882361F190E0880F991FFC01E958FE4F07
:1012A000C591D491FC01EB57FE4FA591B49161110A
:1012B00009C09FB7F8948881209582238883EC9198
:1012C0002E230BC0623061F49FB7F8948881322FCF
:1012D000309583238883EC912E2B2C939FBF06C0DF
:1012E0008FB7F894E8812E2B28838FBFDF91CF91A1
:1012F00008951F93CF93DF93182FEB0161E00E94B5
:101300003D09209711F460E004C0CF3FD10539F4C6
:1013100061E0812FDF91CF911F910C940E09E12F95
:10132000F0E0E152FE4FE4918E2F90E0FC01319706
:10133000EF30F10508F06CC0E459FF4F0C94C90E72
:1013400084B5806884BDC7BD68C084B5806284BD33
:10135000C8BD63C080918000806880938000D09376
:101360008900C093880059C080918000806280937A
:101370008000D0938B00C0938A004FC08091800082
:10138000886080938000D0938D00C0938C0045C00E
:1013900080919000806880939000D0939900C093D2
:1013A00098003BC080919000806280939000D09321
:1013B0009B00C0939A0031C0809190008860809318
:1013C0009000D0939D00C0939C0027C08091C000E6
:1013D00080688093C0008091C0008F7B8093C000A4
:1013E000C093CF001AC08091C00080628093C0007B
:1013F000C093D00012C08091C20088608093C20068
:101400008091C2008B7F8093C200C093D20005C040
:10141000C038D1050CF07CCF76CFDF91CF911F91F2
:101420000895823108F08251E82FF0E0E559FE4F2F
:10143000E49180917B00E3FB222720F930E095E0E6
:10144000220F331F9A95E1F78F7D282B20937B0085
:10145000E770E064E0937C0080917A008064809380
:101460007A0080917A0086FDFCCF809178002091EF
:10147000790090E0922B08951F920F920FB60F9271
:1014800011242F933F938F939F93AF93BF9380919A
:10149000950290919602A0919702B0919802309196
:1014A000940223E0230F2D3720F40196A11DB11DD6
:1014B00005C026E8230F0296A11DB11D20939402BA
:1014C0008093950290939602A0939702B09398020E
:1014D0008091990290919A02A0919B02B0919C02F6
:1014E0000196A11DB11D8093990290939A02A09339
:1014F0009B02B0939C02BF91AF919F918F913F91BE
:101500002F910F900FBE0F901F901895CF93DF93E0
:10151000CDB7DEB760970FB6F894DEBF0FBECDBF74
:10152000789484B5826084BD84B5816084BD85B5BE
:10153000826085BD85B5816085BD80916E008160CA
:1015400080936E0010928100809181008260809370
:101550008100809181008160809381008091800072
:1015600081608093800080919100826080939100DF
:1015700080919100816080939100809190008160C2
:10158000809390008091C10084608093C10080911D
:10159000C10082608093C1008091C100816080930E
:1015A000C1008091C30081608093C3008091C0001E
:1015B00082608093C0008091C20081608093C200ED
:1015C00080917A00846080937A0080917A008260B2
:1015D00080937A0080917A00816080937A00809174
:1015E0007A00806880937A00109243021092DD01A5
:1015F0001092DC018091D70081608093D70080EA4F
:101600008093D80089B5806189BD89B5826089BD24
:1016100009B400FEFDCF0E94B7088091D8008F7CEE
:1016200080618093D8008091E000807F8093E0000B
:101630008091E1008E7E8093E1008DE08093E20056
:10164000559A209A8FEF9FEF90935102809350020A
:101650000DE211E021E00135120741F0F80180812F
:101660000E5F1F4F60E00E943D09F4CF05E211E0DC
:10167000F1E005331F0741F0F80180810E5F1F4F35
:1016800061E00E943D09F4CF0E942A02809181000E
:10169000887F826080938100109290001092910068
:1016A00010929200109295001092940080919100F7
:1016B0008B608093910089E190E0909399008093F2
:1016C0009800809171008260809371001092C00038
:1016D0001092C1001092C2001092C3001092BF007D
:1016E0001092BE008091C1008F608093C10088EE8F
:1016F0008093CF008091720080648093720081E0BB
:1017000080933E020E943C0399E1A92EB12CCE01A8
:1017100001964C01809140029091410284369105DE
:101720000CF452C010923F0291E090933E0210924E
:101730009500109294006091400270914102072E32
:10174000000C880B990B0E94DE0D2B013C018EEDE5
:10175000282E81E0382E0EE112E0A3019201F8015B
:1017600060817181828193810E94340D6B017C01C3
:1017700020E030E0A9010E946A0E20E030E040E065
:101780005FE387FD05C0C701B6010E94C80C04C015
:10179000C701B6010E94C70C0E94A60DF10161931A
:1017A00071931F01F80111921192119211928F0100
:1017B000F2E00E331F0789F61092410210924002A8
:1017C0008EED91E00E94500384E492E00E940C02AE
:1017D000892B09F4BFC084E492E00E941E037C01BF
:1017E0008C01112701321105A1F03CF400321105E2
:1017F00009F052C00E943C03ADC002321105B9F09D
:101800000332110509F048C00E942A0210923F02DB
:10181000A1C080913F0281119DC01092950010924D
:10182000940021E020933F0210923E0293C08091E9
:101830003F0281118FC0F40120E111922A95E9F74E
:1018400082E10E94110A9A83898383E10E94110A2E
:101850009C838B8384E10E94110A9E838D8385E1A2
:101860000E94110A98878F8386E10E94110A9A8745
:10187000898787E10E94110A9C878B8789E10E94F2
:10188000110A9E878D878AE10E94110A988B8F87A3
:10189000C4010E9450035EC0ECEDEE0DE830A8F5E7
:1018A0008E2F90E0FC013197E730F10510F5EA5AF0
:1018B000FF4F0C94C90E60E01DC061E001C060E004
:1018C00083E00E940E0960E019C061E001C060E0A1
:1018D00083E00E940E0961E007C061E001C060E0A2
:1018E00083E00E940E0960E082E00E940E0960E041
:1018F00009C061E083E00E940E0961E082E00E947D
:101900000E0961E080E00E940E0985EB8E0D8A31A0
:1019100078F498012B5431094FEF429FC001439F47
:10192000900D1124B5010E94930E89E00E9479095F
:101930008BE98E0D8A3170F405561109EFEFE09FA7
:10194000C001E19F900D1124B5010E94930E8AE021
:101950000E94790980E090E0892B09F4DBCE0E9497
:101960000000D8CEE4E4F2E01382128288EE93E025
:10197000A0E0B0E084839583A683B78380E191E003
:10198000918380838FEF9FEF9587848708955058C8
:10199000BB27AA270E94DF0C0C94300E0E94220E57
:1019A00038F00E94290E20F039F49F3F19F426F4F4
:1019B0000C941F0E0EF4E095E7FB0C94190EE92F22
:1019C0000E94410E58F3BA17620773078407950700
:1019D00020F079F4A6F50C94630E0EF4E0950B2E2E
:1019E000BA2FA02D0B01B90190010C01CA01A00171
:1019F0001124FF27591B99F0593F50F4503E68F1CC
:101A00001A16F040A22F232F342F4427585FF3CF0C
:101A1000469537952795A795F0405395C9F77EF4DD
:101A20001F16BA0B620B730B840BBAF09150A1F026
:101A3000FF0FBB1F661F771F881FC2F70EC0BA0FAC
:101A4000621F731F841F48F4879577956795B79534
:101A5000F7959E3F08F0B0CF9395880F08F099272F
:101A6000EE0F9795879508950E94480D0C94300EBF
:101A70000E94290E58F00E94220E40F029F45F3F88
:101A800029F00C94190E51110C94640E0C941F0E35
:101A90000E94410E68F39923B1F3552391F3951BEE
:101AA000550BBB27AA2762177307840738F09F5F7F
:101AB0005F4F220F331F441FAA1FA9F335D00E2EEC
:101AC0003AF0E0E832D091505040E695001CCAF759
:101AD0002BD0FE2F29D0660F771F881FBB1F26171C
:101AE00037074807AB07B0E809F0BB0B802DBF01F3
:101AF000FF2793585F4F3AF09E3F510578F00C94C2
:101B0000190E0C94640E5F3FE4F3983ED4F386956F
:101B100077956795B795F7959F5FC9F7880F911DE2
:101B20009695879597F90895E1E0660F771F881FCE
:101B3000BB1F621773078407BA0720F0621B730B81
:101B4000840BBA0BEE1F88F7E09508950E94AD0D47
:101B50006894B1110C94640E08950E94490E88F0A7
:101B60009F5798F0B92F9927B751B0F0E1F0660F61
:101B7000771F881F991F1AF0BA95C9F714C0B130A2
:101B800091F00E94630EB1E008950C94630E672FEC
:101B9000782F8827B85F39F0B93FCCF386957795D1
:101BA0006795B395D9F73EF49095809570956195BA
:101BB0007F4F8F4F9F4F0895E89409C097FB3EF4E5
:101BC00090958095709561957F4F8F4F9F4F99238A
:101BD000A9F0F92F96E9BB279395F6958795779508
:101BE0006795B795F111F8CFFAF4BB0F11F460FFC8
:101BF0001BC06F5F7F4F8F4F9F4F16C0882311F020
:101C000096E911C0772321F09EE8872F762F05C033
:101C1000662371F096E8862F70E060E02AF09A95CE
:101C2000660F771F881FDAF7880F9695879597F9C3
:101C3000089597F99F6780E870E060E008959FEF4E
:101C400080EC089500240A94161617061806090653
:101C5000089500240A941216130614060506089522
:101C6000092E0394000C11F4882352F0BB0F40F4AA
:101C7000BF2B11F460FF04C06F5F7F4F8F4F9F4FEA
:101C8000089557FD9058440F551F59F05F3F71F06C
:101C90004795880F97FB991F61F09F3F79F08795D3
:101CA0000895121613061406551FF2CF4695F1DF5C
:101CB00008C0161617061806991FF1CF86957105EC
:101CC000610508940895E894BB2766277727CB0120
:101CD00097F908950E946F0E08F48FEF0895990FF9
:101CE0000008550FAA0BE0E8FEEF16161706E807E6
:101CF000F907C0F012161306E407F50798F0621B07
:101D0000730B840B950B39F40A2661F0232B242BDB
:101D1000252B21F408950A2609F4A140A6958FEFFA
:101D2000811D811D089597FB072E16F4009407D09E
:101D300077FD09D00E94CF0E07FC05D03EF49095A8
:101D400081959F4F0895709561957F4F0895A1E209
:101D50001A2EAA1BBB1BFD010DC0AA1FBB1FEE1F25
:101D6000FF1FA217B307E407F50720F0A21BB30B70
:101D7000E40BF50B661F771F881F991F1A9469F7EC
:101D800060957095809590959B01AC01BD01CF0148
:101D90000895EE0FFF1F0590F491E02D0994AA1B02
:101DA000BB1B51E107C0AA1FBB1FA617B70710F046
:101DB000A61BB70B881F991F5A95A9F78095909578
:101DC000BC01CD01089581E090E0F8940C94E80EF8
:041DD000F894FFCFB5
:101DD400FFFFFFFF00E10000000000000000000022
:101DE400EB017402F60201020C021E03FA0200C1A6
:101DF40080810000000300020000000F00070004BF
:101E0400000C0005000D000B0001000E0010004244
:101E140072616B657465737462656E6368202D20EE
:101E240046572056657273696F6E20322E30202813
:101E340032382D4F63742F3230313829004D6164AC
:101E440065206279204A6F616F204775696D617200
:101E5400616573202D206A6F616F6775696D6172AA
:101E6400616573333140676D61696C2E636F6D001A
:101E740068747470733A2F2F6769746875622E637F
:101E84006F6D2F6272616B657465737462656E63E6
:101E9400682F6669726D77617265002C00310030BD
:061EA400003B000D0A00E6
:00000001FF
