:100000000C94DD000C9405010C9405010C94050181
:100010000C9405010C9405010C9405010C94050148
:100020000C9405010C9405010C9482040C94F404C6
:100030000C9405010C9405010C9405010C94050128
:100040000C9405010C9405010C9405010C94050118
:100050000C9405010C9405010C9405010C943804D2
:100060000C9405010C9405010C9405010C940501F8
:100070000C9405010C9405010C9405010C940501E8
:100080000C9405010C9405010C9405010C940501D8
:100090000C9405010C9405010C9405010C940501C8
:1000A0000C9405010C9405010C940501A401A70111
:1000B00096019A019E01C801C801C801AB01AF01B8
:1000C000B301B901BD01C801C301080B000202025E
:1000D00001000904000001020200000524001001D3
:1000E0000524010101042402060524060001070578
:1000F000810310004009040100020A000000070506
:1001000002024000000705830240000004030904C6
:1001100012010002EF02014041233680000101027A
:10012000030141726475696E6F204C4C430041724B
:100130006475696E6F204C656F6E6172646F00004C
:1001400000000200090F0000030401000C00000081
:10015000000000000000000000000000000000009F
:100160000000250028002B002E00310000000000B8
:10017000240027002A002D00300004040404040396
:100180000405020202020403020202020606060637
:10019000060604040202020404040802011040805E
:1001A000401020408040800802040180402010025E
:1001B0000110801020404020400811241FBECFEFC6
:1001C000DAE0DEBFCDBF11E0A0E0B1E0E4ECF0E1A9
:1001D00002C005900D92AA3BB107D9F722E0AAEB25
:1001E000B1E001C01D92A932B207E1F710E0CDEDF8
:1001F000D0E004C02197FE010E945508CC3DD107F4
:10020000C9F70E9432070C9460080C94000090E03B
:10021000FC01E756FE4F2491FC01E658FE4F849105
:10022000882399F090E0880F991FFC01E459FE4F54
:10023000A591B491FC01E25AFE4F859194918FB73C
:10024000F894EC91E22BEC938FBF08952091D801A4
:10025000211103C08FEF9FEF08955FB7F89422E05C
:100260002093E9002091F20030E01216130614F4F6
:1002700021E030E0422FFC0184E6415038F028981C
:100280008093D7019091F1009193F7CF211531051B
:1002900021F08091F200882319F05FBFC901089511
:1002A0008BE68093E800F9CF2FB7F89483E0809332
:1002B000E9009091E800892F807295FF04C0909129
:1002C000F20080E4891B2FBF08958091CF01811136
:1002D0000DC082E08093CB0184E08093CC0110922A
:1002E000CE011092CD0181E08093CF018BEC91E0A3
:1002F0000895362F90E0FC01E15CFE4F4491FC0133
:10030000E756FE4F2491FC01E658FE4F8491882366
:1003100009F452C04423E1F150E0FA013197EF3083
:10032000F105B0F5EA5AFF4F0C9455089091800002
:100330009F7707C0909180009F7D03C090918000BF
:10034000977F9093800024C094B59F7702C094B5A6
:100350009F7D94BD1DC0909190009F7707C09091A4
:1003600090009F7D03C090919000977F90939000A4
:100370000FC09091C0009F7703C09091C0009F7DF7
:100380009093C00005C09091C200977F9093C200E7
:10039000E82FF0E0EE0FFF1FE25AFE4FA591B49157
:1003A0009FB7F894311104C08C912095282302C086
:1003B000EC912E2B2C939FBF08953FB7F89480911A
:1003C000C7019091C801A091C901B091CA0126B599
:1003D000A89B05C02F3F19F00196A11DB11D3FBF7D
:1003E000BA2FA92F982F8827820F911DA11DB11D0B
:1003F000BC01CD0142E0660F771F881F991F4A9507
:10040000D1F70895CF92DF92EF92FF920E94DD0123
:100410006B017C010E94DD01DC01CB018C199D097F
:10042000AE09BF09883E9340A105B10598F3FF903E
:10043000EF90DF90CF9008954091BC015091BD01A5
:100440002091BA013091BB0142175307B4F4909147
:10045000E8009570E1F39091E80092FD19C0809357
:10046000F1008091BC019091BD0101968F73992795
:10047000892B19F48EEF8093E8008091BC01909154
:10048000BD0101969093BD018093BC0181E0089568
:1004900080E00895DF92EF92FF920F931F93CF9326
:1004A000DF93D82EF92EE42E062F10E0C801019616
:1004B000880F0E941C0283E00E941C02CD2DDF2DBC
:1004C0000C0F1D1FC017D10789F0E7FE03C0FE0106
:1004D000849101C088810E941C02F82E80E00E9455
:1004E0001C028F2121968111EDCF01C081E0DF91A7
:1004F000CF911F910F91FF90EF90DF900895DF92C1
:10050000EF92FF920F931F93CF93DF93D82E8A0120
:100510007B01E40EF51EEB01CE15DF0571F0D7FE71
:1005200003C0FE01849101C088810E941C022196B3
:100530008111F2CF8FEF9FEF01C0C801DF91CF9102
:100540001F910F91FF90EF90DF9008950F931F93ED
:10055000CF93DF931F92CDB7DEB782E0898342E469
:1005600050E06AEC70E080E80E947F020E94650122
:10057000DC0112960D911C9113970115110589F05C
:10058000D801ED91FC910280F381E02DBE016F5FF7
:100590007F4FC801099597FD04C0F80100851185BA
:1005A000ECCF89810F90DF91CF911F910F9108952A
:1005B000615030F02091F100FC0120830196F8CFCA
:1005C000289884E68093D7010895CF92DF92EF9226
:1005D000FF920F931F93CF93DF936C017A018B01EE
:1005E000C0E0D0E0CE15DF0581F0D8016D918D011E
:1005F000D601ED91FC910190F081E02DC6010995A5
:10060000892B11F02196EECF7E01C701DF91CF91AA
:100610001F910F91FF90EF90DF90CF9008958F92F0
:100620009F92AF92BF92CF92DF92EF92FF920F9381
:100630001F93CF93DF936C017B018A0180910B01A3
:10064000882309F458C08091D801882309F453C045
:100650008091C00180FF05C08091E000826080939E
:10066000E000E801B12C8AEFA82E93E0892E2AE35E
:10067000922E209711F4BB20B9F10E9454018111F0
:1006800006C0AA94AA20B9F10E940202F2CF282F34
:1006900030E0C217D3070CF48C2F9FB7F8948092E8
:1006A000E9002091E80025FF1DC0282F30E0C21B83
:1006B000D30BF701815020F041914093F100FACF24
:1006C000E20EF31EBB2019F09092E8000AC0809160
:1006D000E80085FD07C09092E800BB24B394209702
:1006E00009F0B12C9FBFC5CF5D9884E68093BF0110
:1006F0001016110644F081E090E0F60193838283A6
:1007000080E090E001C0C801DF91CF911F910F916F
:10071000FF90EF90DF90CF90BF90AF909F908F9021
:100720000895CF93DF931F92CDB7DEB76983DC01C5
:10073000ED91FC910280F381E02D41E050E0BE019B
:100740006F5F7F4F09950F90DF91CF91089583E000
:100750008093E9008091F200882319F08AE3809366
:10076000E80008950E94540190E00895CF93DF932C
:100770001F92CDB7DEB7FC018485958597FD05C036
:100780002FEF3FEF358724870BC0CE0101960E94E3
:100790002601019719F4898190E002C08FEF9FEF45
:1007A0000F90DF91CF9108950F931F93CF93DF9315
:1007B0001F92CDB7DEB78C01FC018485958597FF2C
:1007C0000EC0CE0101960E942601019719F489817D
:1007D00090E002C08FEF9FEFF80195878487F801C2
:1007E000848595850F90DF91CF911F910F9108958A
:1007F000FC018485958597FD0BC09FB7F89482E036
:100800008093E9008091F2009FBF90E001960895E7
:100810009FB7F89482E08093E9008091F2009FBF37
:1008200090E00895089580E090E00895009769F0C1
:10083000FC0101900020E9F73197AF01481B590BEB
:10084000BC0189ED91E00C940F0380E090E00895E5
:10085000CF93DF930E941604EC0185E291E00E94A1
:1008600016048C0F9D1FDF91CF9108950E945B08A5
:100870001F920F920FB60F9211242F933F938F93D5
:100880009F93AF93BF938091C3019091C401A091B6
:10089000C501B091C6013091C20123E0230F2D376D
:1008A00020F40196A11DB11D05C026E8230F029674
:1008B000A11DB11D2093C2018093C3019093C40177
:1008C000A093C501B093C6018091C7019091C80162
:1008D000A091C901B091CA010196A11DB11D8093DB
:1008E000C7019093C801A093C901B093CA01BF91F9
:1008F000AF919F918F913F912F910F900FBE0F90CD
:100900001F9018951F920F920FB60F9211248F937C
:100910009F938091E1009091E100937F9093E1009B
:1009200083FF0FC01092E90091E09093EB001092CA
:10093000EC0092E39093ED001092D80198E0909330
:10094000F00082FF20C093E09093E9009091F200C4
:10095000992319F09AE39093E8009091BF019923AD
:1009600039F09091BF0191509093BF01992389F183
:100970009091D701992339F09091D701915090939C
:10098000D701992341F184FF10C08091E2008E7E4F
:1009900081608093E2008091E1008F7E8093E1008E
:1009A0008091C0018E7E806111C080FF16C0809151
:1009B000E2008E7E80618093E2008091E1008E7E75
:1009C0008093E1008091C0018E7E81608093C001A0
:1009D00004C05D9ACDCF289AD6CF9F918F910F906A
:1009E0000FBE0F901F9018951F920F920FB60F9287
:1009F0001124CF92DF92EF92FF920F931F932F93C8
:100A00003F934F935F936F937F938F939F93AF9396
:100A1000BF93EF93FF93CF93DF93CDB7DEB76C9780
:100A2000DEBFCDBF1092E9008091E80083FFFBC1DB
:100A300068E0CE0145960E94D80282EF8093E800DC
:100A40008D8987FF05C09091E80090FFFCCF03C01F
:100A50009EEF9093E800982F907609F0C6C09E898B
:100A60004F89588D2F89F88C91110CC0803829F44A
:100A70008091C1018093F10002C01092F1001092A8
:100A8000F10045C1913051F4811141C1413051050E
:100A900009F03DC18091C1018D7F0BC0933061F49D
:100AA000811135C14130510509F031C18091C10139
:100AB00082608093C1012BC1953049F48091E80098
:100AC00080FFFCCF822F80688093E30020C19630A6
:100AD00009F05EC00B8D1C8D22E01092E90010928F
:100AE000BD011092BC01F21232C01092BB011092F3
:100AF000BA010E94A60299E0BE016F5F7F4FDB0141
:100B0000E92F1D92EA95E9F79983FA8291E09E8395
:100B100090EA98879AEF99872091BC013091BD01A6
:100B2000275F3F4F3C832B838D831092E900109207
:100B3000BD011092BC011093BB010093BA0149E0C2
:100B400050E080E00E947F020E94A602E0C0109365
:100B5000BB010093BA010E946501DC0112960D9160
:100B60001C9113970115110509F4BBC0D801ED9133
:100B7000FC910480F581E02DBE016B5E7F4FC801C2
:100B80000995009709F0C7C0F80100851185EACFE3
:100B9000973009F445C1983021F481E08093F10049
:100BA000B6C0993009F0B3C0837009F039C1EFE1E4
:100BB000F1E081E031E096E32081211109C08EE768
:100BC0008093EA001092EA008F898093D8019FC039
:100BD0008093E9003093EB0021912093EC009093F7
:100BE000ED008F5F873041F7EACF8B8D9C8D10929F
:100BF000E9001092BD011092BC019093BB0180935B
:100C0000BA01898D811153C08E899D89913A49F429
:100C1000813209F005C147E050E064E071E080E016
:100C2000BBC0913209F0FCC0833269F48F89988D82
:100C3000A0E0B0E08093000190930101A093020135
:100C4000B093030164C0803269F48091E80082FFB0
:100C5000FCCF67E084E091E00E94D8028BEF8093A4
:100C6000E80055C0823209F052C08F8980930B0191
:100C7000EEEFFFE7859194918B3F9C4D19F0E0E0FA
:100C8000F8E002C0EEEFFAE08091040190910501D6
:100C9000A0910601B0910701803B9440A105B105E8
:100CA00009F09EC080910B0180FF79C099C00E941D
:100CB0006501FC01028113810115110509F4B0C021
:100CC000D801ED91FC910190F081E02DBE016B5EA9
:100CD0007F4FC801099581111AC0F801008511855F
:100CE000EBCFF1E0FF1609F44EC0F3E0FF1298C01D
:100CF0008F89882309F44AC0823089F440E860E192
:100D00008EE291E00E944A02882309F489C08EEFA6
:100D10008093E80088C018161906CCF381C0813092
:100D200029F440E86BE082E291E0ECCF833009F0F7
:100D300077C00E946501DC011296ED90FC9013973C
:100D40008E010F5F1F4F6801E114F10479F0D701A4
:100D5000ED91FC910680F781E02DB801C70109955E
:100D6000080F111DF701E084F184EECFD8011C9229
:100D7000F60101900020E9F73197BF016C197D0958
:100D800040E0C601BFCF60E171E002C06CE071E0FD
:100D9000FB01449150E080E80E947F02B8CFEE3F13
:100DA0002AE0F20751F0808191818737A7E79A07FF
:100DB00021F09093FF0A8093FE0A87E797E79183DB
:100DC0008083809160008093BE019BE088E10FB634
:100DD000F894A895809360000FBE9093600097CF21
:100DE000808191818737974709F091CFA8958091AD
:100DF00060008861809360008091BE0180936000F4
:100E0000EE3FBAE0FB0739F08091FE0A9091FF0AAD
:100E1000918380837CCF1092FF0A1092FE0A77CFD5
:100E200081E28093EB006C960FB6F894DEBF0FBEA4
:100E3000CDBFDF91CF91FF91EF91BF91AF919F9186
:100E40008F917F916F915F914F913F912F911F9162
:100E50000F91FF90EF90DF90CF900F900FBE0F900B
:100E60001F901895789484B5826084BD84B58160A4
:100E700084BD85B5826085BD85B5816085BD809165
:100E80006E00816080936E001092810080918100DD
:100E900082608093810080918100816080938100D5
:100EA00080918000816080938000809191008260B9
:100EB0008093910080919100816080939100809156
:100EC00090008160809390008091C1008460809345
:100ED000C1008091C10082608093C1008091C100F7
:100EE00081608093C1008091C30081608093C300C2
:100EF0008091C00082608093C0008091C2008160B8
:100F00008093C20080917A00846080937A008091FF
:100F10007A00826080937A0080917A008160809369
:100F20007A0080917A00806880937A001092D801CC
:100F30001092C1011092C0018091D700816080930E
:100F4000D70080EA8093D80089B5806189BD89B5D2
:100F5000826089BD09B400FEFDCF0E94020280912B
:100F6000D8008F7C80618093D8008091E000807FE2
:100F70008093E0008091E1008E7E8093E1008DE01F
:100F80008093E200559A209A8FEF9FEF9093E601AD
:100F90008093E50188E291E00E94160483E00E94BC
:100FA000070182E00E94070180E00E94070161E0E2
:100FB00083E00E94790161E082E00E94790161E0B2
:100FC00080E00E947901C0E0D0E089ED91E00E94CC
:100FD000F803892B09F44EC089ED91E00E94B60315
:100FE00099278333910509F164F481339105B1F0B8
:100FF000C29781F561E083E00E9479018BE591E081
:1010000037C085339105F9F0BCF0C69719F561E05A
:1010100080E00E94790189E991E02AC060E083E0E4
:101020000E9479018CE491E023C060E082E00E949C
:1010300079018BE691E01CC061E082E00E947901B9
:101040008AE791E015C060E080E00E9479018AE8BB
:1010500091E00EC061E083E00E94790161E082E0EE
:101060000E94790161E080E00E94790189EA91E0C3
:101070000E942804209709F4A8CF0E940000A5CF61
:10108000E9EDF1E01382128288EE93E0A0E0B0E097
:1010900084839583A683B78380E191E091838083E5
:1010A0008FEF9FEF958784870895EE0FFF1F0590C0
:1010B000F491E02D099481E090E0F8940C9460089C
:0410C000F894FFCFD2
:1010C400FFFFFFFF00E1000000000000000000003F
:1010D40091030F03B203A703F803B603D40300C1BB
:1010E40080810000000D0A005465737420617070E3
:1010F4006C69636174696F6E20666F7220446967FE
:101104006974616C20506F7274730A004F75747047
:1011140075742031203D204F4E0A004F7574707550
:10112400742031203D204F46460A004F7574707577
:10113400742032203D204F4E0A004F757470757430
:101144002032203D204F46460A004F757470757456
:101154002033203D204F4E0A004F75747075742063
:1011640033203D204F46460A00416C6C204F757475
:0A11740070757473204F46460A00A0
:00000001FF
